:100000000C9419020C9441020C9441020C9441028C
:100010000C9441020C9441020C9441020C94410254
:100020000C9441020C9441020C9441020C9408116E
:100030000C9441020C9441020C9441020C94410234
:100040000C94BE100C9441020C9441020C94410299
:100050000C9441020C9441020C9441020C94410214
:100060000C9441020C9441020101FF030101F703CA
:100070000808040E3FFFFF3F0E0408080E0C4EFF59
:10008000FF4E0C0E08081E1278FFFF78121E6C003F
:10009000680000000000240027002A000000000083
:1000A000250028002B000500893008023802497815
:1000B00068140000536869702073686F6F7465720C
:1000C00000536869702073686F6F74657200202038
:1000D000444F574E202D206E6F0020205550202D6C
:1000E0002079657300706C617920616761696E3F8A
:1000F00000446F20796F752077616E7420746F00F3
:10010000596F75206C6F7374000802E0E008058079
:10011000C0E0C08053706163652073686F6F746561
:1001200072000500380168010000175344001613DF
:100130007800161314001510200015201000540A22
:1001400003E181867F3E186D830F0F0E0183866069
:1001500033186DC3198F1803C38E6033186DE330E5
:10016000CF1803C39E603630CDE360CF3006C79E04
:100170007E3E30CDB360CF300CC6F6603330D9B69A
:1001800060CF33CFCCF66061B0DB1E60CF30D86C6F
:10019000E6C061B0DB1E618F19986CC6C063B19B6D
:1001A0000E330F0FB078C6FF7E1F1B061E0F0A0A04
:1001B000153A49676E6F7265006D560A0A504C45D4
:1001C000415345205455524E204F464620004C4F37
:1001D000572042415454455259212000F6E8DBCFC4
:1001E000C3B8AEA49B928A827B746E68625C5752DD
:1001F0004E4945413E3A3734312E2C2927252321BB
:10020000450068010000172B152010204C4F414479
:10021000455200172B16201314000A4E6F2053442A
:100220002063617264206F720A6E6F204C4F4144EC
:1002300045522E4845580A0A153A45786974001DFA
:1002400020466C617368696E670A20206C6F616478
:1002500065722E2E2E0A0A444F4E275420545552B2
:100260004E204F46462100000000002300260029B2
:10027000000404040404040404020202020202034F
:100280000303030303010204081020408001020459
:1002900008102001020408102000000008000201DC
:1002A0000000030407000000000000000003053FF9
:1002B000213F1208120A100A0E1C0E0C1E0C141AF2
:1002C00014161F161E131E1E1B1E1E1F1E3F213F2F
:1002D0003A2F3A173D173F213F181F02040A041F07
:1002E0000E04040E1F0A1F0A0E0E1F04110E2E25E7
:1002F0002E2F2A2E262929021F02081F08150E0458
:10030000040E150E15151B151B040604040C040021
:1003100000000017000300031F0A1F16371A1904F4
:10032000130A153A000300000E11110E000A040A08
:10033000040E040030000404040010001804031F1D
:10034000111F121F101D151711151F07041F171558
:100350001D1F151D01011F1F151F17151F000A0066
:10036000003200040A110A0A0A110A040115020ED9
:1003700011171E051E1F150A0E110A1F110E1F153B
:10038000111F05010E111D1F041F111F1108100F51
:100390001F041B1F10101F061F1E040F0E110E1F1F
:1003A00009060E112E1F051A121509011F011F1033
:1003B0001F0F180F1F0C1F1B041B031C0319151301
:1003C000001F11030418111F000201022020200049
:1003D00001020C121E1F120C0C12120C121F0C1A0E
:1003E00014041E05242A1E1F021C141D1020201D8B
:1003F0001F0814111F101E041E1E021C0C120C3E9E
:100400000A040C123E1E040214160A020F120E10E9
:100410001E0E100E1E081E120C1226281E322A2630
:10042000041E21001F00211E040102013F213F0084
:100430007B1911241FBECFEFD8E0DEBFCDBF11E086
:10044000A0E0B1E0E0E5FAE302C005900D92A2342D
:10045000B107D9F724E0A2E4B1E001C01D92A734AE
:10046000B207E1F712E0C9E1D2E004C02197FE0132
:100470000E94201DC831D107C9F70E9449110C9470
:10048000261D0C9400004F925F926F927F928F9284
:100490009F92AF92BF92CF92DF92EF92FF920F9313
:1004A0001F93CF93DF93FA01A490B12C3196C4919E
:1004B000F701C4903196E4914501880E991E2815E4
:1004C00039050CF0A3C0C20ED32ED11C8C159D058E
:1004D0000CF09CC0D0E03E01660E771E0615170595
:1004E0000CF094C0E00FF12FF11D6E177F070CF098
:1004F0008DC02901481A590A821793070CF0412C24
:10050000D801A61BB70B601771070CF0A0E08C1484
:100510009D041CF05601A81AB90A6E167F061CF03D
:10052000EF01C61BD70B1A2FA0E8B0E0882E821A65
:10053000962E901A812F90E08C179D070CF066C0C4
:10054000042DC92CC10ED12C202F30E02A153B05DB
:100550000CF05AC0FA01649170E0695F7F4FE3E0EC
:1005600075956795EA95E1F7689FF001699FF00D31
:10057000789FF00D112463E0359527956A95E1F792
:100580002E5F3F4FE20FF31FE40FF51FE491202F82
:100590002770BD0102C0759567952A95E2F7F0E0D6
:1005A000E623F723EF2B71F1F701249130E0295F67
:1005B0003F4F63E0359527956A95E1F7C29EF001BC
:1005C000C39EF00DD29EF00D1124682D600F262FD2
:1005D00030E073E0359527957A95E1F72E5F3F4F30
:1005E000E20FF31FEE0DFF1DE49167709D0102C045
:1005F000359527956A95E2F7B901F0E0E223F723F4
:10060000EF2BB1F40F5FA0CF1F5F94CF80E0DF919D
:10061000CF911F910F91FF90EF90DF90CF90BF90FF
:10062000AF909F908F907F906F905F904F900895C4
:1006300081E0EDCFDC01EDEAF2E0E491EF5F1496AA
:10064000EC931497EEEAF2E0E491EF5F1596EC93E9
:1006500015978FEA92E05F969C938E935E9708952C
:10066000ECEBF3E014AE12AE109205041092040409
:1006700015AE1092BB011092BA011092B9011092FE
:10068000B4000895CF93DF93E091EA038E2F90E0BA
:10069000880F991FE091E803F091E903E80FF91F33
:1006A000859194918F3F980729F41092E103DF918F
:1006B000CF9108959093ED039927880F991FE091AA
:1006C000EB03F091EC03E80FF91FC591D4910E9460
:1006D0003003D093EF03C093EE031092F403109213
:1006E000F30381E08093E20389E08093F7031092A3
:1006F000FA031092FC031092FE038091EA038F5FCD
:100700008093EA03D4CF90E0880F991FE091F00323
:10071000F091F103E80FF91F259134913093010412
:1007200020930004F901859194919091E503989F9D
:10073000802D112480930204F90165917491472F53
:1007400050E08417150629F020F0F9012591349125
:10075000832F989F802D1124809303040895DC013A
:10076000ED91FC910190F081E02D0994EF92FF92C0
:100770000F931F93CF93DF938C017B01D0E0C0E0F8
:10078000F701EC0FFD1F6491662361F0D801ED9134
:10079000FC910190F081E02DC8010995892B11F0A1
:1007A0002196EECFCE01DF91CF911F910F91FF9057
:1007B000EF900895AF92BF92CF92DF92EF92FF92A7
:1007C0000F931F93CF93DF936C017B018B01040F79
:1007D000151FEB015E01AE18BF08C017D10759F015
:1007E0006991D601ED91FC910190F081E02DC60157
:1007F0000995892B79F7C501DF91CF911F910F9151
:10080000FF90EF90DF90CF90BF90AF90089583302E
:1008100081F028F4813099F08230A9F00895873072
:10082000A9F08830C9F08430B1F4809180008F7DC8
:1008300003C0809180008F7780938000089584B5F5
:100840008F7784BD089584B58F7DFBCF8091B000F4
:100850008F778093B00008958091B0008F7DF9CF9D
:100860001F93CF93DF93282F30E0F901E756FD4F18
:100870008491F901EB57FD4FD491F901EF58FD4FE9
:10088000C491CC23A9F0162F81110E940704EC2FEC
:10089000F0E0EE0FFF1FE456FF4FA591B4918FB724
:1008A000F894EC91111108C0D095DE23DC938FBF32
:1008B000DF91CF911F910895DE2BF8CFCF93C82FF2
:1008C000F89460E0809119040E94300480911A0429
:1008D00018161CF460E00E943004CEBD00000DB478
:1008E00007FEFDCF8EB580911A0418161CF461E046
:1008F0000E9430047894CF9108950F931F93CF9363
:10090000809116048F5F809316040CEB11E0C0E019
:100910008C2F80640E945E0480E80E945E0461E087
:10092000809119040E94300480911A0418161CF456
:1009300060E00E943004F80184E591919EBD0000C2
:100940000DB407FEFDCF9EB58150B9F780911A0412
:1009500018161CF461E00E943004CF5F0C5A1F4F40
:10096000C630B1F680E4CF911F910F910C945E04D4
:10097000CF93DF9390E0FC01EB57FD4F24918F580C
:100980009D4FFC0184918823C9F090E0880F991F46
:10099000FC01EE56FF4FA591B491FC01E456FF4FC8
:1009A000C591D49161110DC09FB7F8948C91209599
:1009B00082238C938881282328839FBFDF91CF9146
:1009C0000895623051F49FB7F8943C91822F80953E
:1009D00083238C93E8812E2BEFCF8FB7F894EC9183
:1009E0002E2B2C938FBFEACFFF920F931F93CF93A1
:1009F000DF93CCEBD3E0FF24FA9462E08A850E9477
:100A0000B8042A8530E0F901E756FD4F8491F901D9
:100A1000EB57FD4F0491F901EF58FD4F149111234D
:100A2000E1F081110E940704E12FF0E0EE0FFF1FBB
:100A3000E959FD4FA591B491EC9189890E2369F094
:100A4000811113C0219683E0C33CD807B1F6DF9132
:100A5000CF911F910F91FF90089589898F5F898BA6
:100A600060E08A850E94B804EDCF8F3F11F4198AA7
:100A7000F7CFF98AF5CF1F93CF93DF93182FEB01B0
:100A800061E00E94B804209739F460E0812FDF9183
:100A9000CF911F910C943004CF3FD10511F461E048
:100AA000F5CFE12FF0E0E756FD4FE491E33031F16F
:100AB00040F4E130B1F0E230E1F0C038D1057CF72C
:100AC000E4CFE73029F1E83059F1E430B1F7809113
:100AD0008000806280938000D0938B00C0938A0056
:100AE00004C084B5806884BDC7BDDF91CF911F91DC
:100AF000089584B5806284BDC8BDF7CF8091800021
:100B0000806880938000D0938900C0938800EDCFE7
:100B10008091B00080688093B000C093B300E5CFAF
:100B20008091B00080628093B000C093B400DDCFAC
:100B30008E50806480937C0080917A0080648093E2
:100B40007A0080917A0086FDFCCF809178009091A8
:100B5000790008958091E0038F7149F584E10E9446
:100B60009805BC01990F880B990B0E94E31B26EE98
:100B70003FE34EEC50E40E94471C0E94B21B9B01D5
:100B80007093D7036093D603672BB9F084E080930A
:100B9000D503E8EDF3E080E041915191241735074A
:100BA00018F48093D50308958F5F8430A9F780915E
:100BB000E0038F5F8093E00308958FEF8093D50368
:100BC000F6CF3FB7F8948091440190914501A091F0
:100BD0004601B091470126B5A89B05C02F3F19F0EB
:100BE0000196A11DB11D3FBFBA2FA92F982F8827AD
:100BF000BC01CD01620F711D811D911D42E0660F88
:100C0000771F881F991F4A95D1F708958F929F9259
:100C1000AF92BF92CF92DF92EF92FF924B015C01B5
:100C20000E94E1056B017C010E94E1056C197D09C0
:100C30008E099F09683E734081059105A8F321E064
:100C4000821A9108A108B10888EEC80E83E0D81E68
:100C5000E11CF11C81149104A104B10429F7FF9057
:100C6000EF90DF90CF90BF90AF909F908F900895BE
:100C70002F923F925F926F927F928F929F92AF924C
:100C8000BF92CF92DF92EF92FF920F931F93CF9379
:100C9000DF93EC01F901E4903196849164350CF016
:100CA00015C10E2C000CFF08062F062E000C110B90
:100CB000F701E00FF11F1E161F060CF007C14033AD
:100CC0000CF004C1A82FC42E042E000CDD08560120
:100CD000A80EB11C87FDBA941A141B040CF0F6C0C0
:100CE0002E5F3F4F570197E0A90EB11CB7FE04C01D
:100CF0005701BEE0AB0EB11CB3E0B594A794BA9512
:100D0000E1F747FF0AC0A42FA80FAC9CC001AD9C1F
:100D1000900D1124281B390B40E08A2F0A2E000C5D
:100D2000990B840F911D47FD9A95C19714F0A0E38C
:100D3000A41BF8A067FD60E0E535F10514F0E4E5DB
:100D4000F0E09E2FCC85C427C62E062E000CDD08B1
:100D5000F601E01BF10B8F014F01F7E08F22992480
:100D6000E0E8F0E002C0F595E7958A94E2F77E2F7F
:100D700017FF02C0095F1F4FF3E015950795FA951D
:100D8000E1F7200F311F542F577081E001C0880F09
:100D90005A95EAF7459545954595F601B4E54B0218
:100DA000E00DF11D1124AF0144545E4FD0E02A2E16
:100DB000AA0F3308EE24E394BB24D21513040CF0DD
:100DC00085C0F9015490F1E0FF121AC0962E8A01F5
:100DD000E72F6901991608F057C08E2E852021F063
:100DE000D8018C90882A8C92E69531F4BFEFCB1A0B
:100DF000DB0AF6015490E0E893940F5F1F4FEACFAF
:100E0000F1101CC0782E7094962E8A01E72F69018C
:100E1000991608F039C08E2E852021F0D8018C90CB
:100E200087208C92E69531F4BFEFCB1ADB0AF601EE
:100E30005490E0E893940F5F1F4FEACFF3E0FF1266
:100E40002CC0782E7094862E8A01972E69018916FF
:100E5000D0F4E92DE52141F0D801EC916C2E682405
:100E600060FE0FC0E82BEC93969439F4BFEFCB1AD9
:100E7000DB0AF6015490E0E89E2E83940F5F1F4F2B
:100E8000E6CFE721F0CFCE25880F19F44C5A5F4FFB
:100E900081E0DF5F2A0D3B1D90CF962E8A01E72F60
:100EA0006901991688F78E2E852021F0D8018C9043
:100EB00088268C92E69531F4BFEFCB1ADB0AF60157
:100EC0005490E0E893940F5F1F4FEBCFDF91CF91E9
:100ED0001F910F91FF90EF90DF90CF90BF90AF9058
:100EE0009F908F907F906F905F903F902F9008958C
:100EF000DC01643570F5403360F590968C919097E5
:100F0000E62F062E000CFF0B242F25952595259501
:100F100094E52902E00DF11D1124E454FE4F2081D7
:100F2000342F37708230B1F4822F90E0032E02C04C
:100F3000959587950A94E2F780958170811114C088
:100F400081E090E001C0880F3A95EAF7809582230E
:100F500080830895833091F71C968C91817064276B
:100F6000609561708613ECCF81E090E001C0880F3E
:100F70003A95EAF7822BECCFAF92BF92CF92DF92F5
:100F8000EF92FF920F931F93CF93DF93182F062FAB
:100F9000C0E0D3E08AEFD82E9EEFE92E842F847034
:100FA000C82E842F8270B82E842F8870A82E41708E
:100FB000F42ECF5F8C2F880F8F5FE80ECC2081F04E
:100FC000402F4D0F612F6C0F8AE094E00E9478074C
:100FD000402F4C0F6D2F610F8AE094E00E9478073C
:100FE000BB2081F0402F4D1B612F6C0F8AE094E0F5
:100FF0000E947807402F4C1B6D2F610F8AE094E010
:101000000E947807AA2081F0402F4C0F612F6D1BA2
:101010008AE094E00E947807402F4D0F612F6C1BEF
:101020008AE094E00E947807FF2081F0402F4C1B5B
:10103000612F6D1B8AE094E00E947807402F4D1BC2
:10104000612F6C1B8AE094E00E947807CD173CF476
:10105000E7FCAFCFD150D394D394ED0CAACFDF915E
:10106000CF911F910F91FF90EF90DF90CF90BF90A5
:10107000AF9008950F931F93CF93DF93D82F162F20
:10108000042FC0E0C0174CF4412F4C0F6D2F8AE0A5
:1010900094E00E947807CF5FF5CFDF91CF911F9149
:1010A0000F9108958F929F92AF92BF92CF92DF924D
:1010B000EF92FF920F931F93CF93DF93082FA62EEB
:1010C000842E922E83E0F82ED0E0C3E09AEFE92E32
:1010D0001EEFBB24B394B20EDF5F1F0D4C2F440FE5
:1010E0006A2D6C1BC92CCF0CDA2CDD1A81E04B0D5C
:1010F000881215C0802F8D0F0E943A084C2D6D2D3F
:101100008C2F800F0E943A08DC1794F417FD04C05E
:10111000C150E394E3941E0DF394F394DDCF802F3C
:101120008D1B0E943A084C2D6D2D802F8C1BEACF11
:10113000DF91CF911F910F91FF90EF90DF90CF90B3
:10114000BF90AF909F908F900895CF92DF92EF92D3
:10115000FF920F931F93CF93DF937C01D62EC22E65
:10116000C42F002E000C110B040F111D47FD1A9502
:101170008C2F0C2E000C990B801791076CF4D0E08B
:10118000DC1544F46D2D6D0F4C2FC7010E947807BC
:10119000DF5FF6CFCF5FECCFDF91CF911F910F9143
:1011A000FF90EF90DF90CF9008954F925F926F92F3
:1011B0007F928F929F92AF92BF92CF92DF92EF92E7
:1011C000FF920F931F93CF93DF93EC016A3049F4A2
:1011D00028859D818A85299F800D11248A871986FB
:1011E000A6C06D3009F4A3C0898483E588150CF48A
:1011F00087C0DA848FE28D150CF482C018852C81AB
:101200002150330B129FC001139F900D1124880DA4
:10121000911D87FC9A95181619060CF071C02D8146
:101220008D2D0D2C000C990B129F800D911D1124FA
:10123000181619060CF064C078A0C82C912CE62E64
:10124000F12C292D092C000C330B8C8190E02817F0
:1012500039070CF054C00197E0E02817390771F006
:10126000E89EF001E99EF00DF89EF00D11242E0F7E
:101270003F1FEE8DFF8DE20FF31FE4915D2C612C7B
:10128000492C480C2D81862D062C000C990B281713
:10129000190691F18CF1AE2EB12CE0FF16C0113081
:1012A00061F4462D4D0D642DCE010E947807F501A5
:1012B000F595E7956394510EE5CF012F212F452D2C
:1012C0006C2DCE010E94A508F2CF89A198A18917A3
:1012D00071F388A3113041F4462D4D0D642DCE01DC
:1012E0000E94780778A2E3CF012F212F452D6C2D86
:1012F000CE010E94A508F6CF9394C10EA2CF78A28A
:1013000028853C818985239F800D112489879F81B1
:10131000992369F0082E000C990B44E550E0239FB7
:10132000401951091124481759070CF452CF81E094
:1013300090E0DF91CF911F910F91FF90EF90DF90A0
:10134000CF90BF90AF909F908F907F906F905F9065
:101350004F900895089590E080E00895CF93DF9333
:10136000EC01673071050CF580E790E09B878A8778
:1013700081E090E09983888322E030E03F872E87E8
:10138000998788879F838E8386E590E09B838A83F5
:101390000E94F71A29E230E040E050E00E944F1B23
:1013A0007D836C83DF91CF91089569307105ECF0F6
:1013B00084E890E09B878A8783E090E09983888324
:1013C00024E030E03F872E87998788870E94F71AAC
:1013D00022E030E040E050E00E944F1B672B682B7A
:1013E000692B41F58FEF9FEF27C08AE790E09B873D
:1013F0008A8782E090E09983888323E030E03F870A
:101400002E87998788870E94F71A8FEF9FEF9F8317
:101410008E8386E590E09B838A830E94F71A28E2F8
:1014200030E040E050E00E944F1B6F5F7F4F8F4FD6
:101430009F4FB6CF81E090E09F838E8386E590E05A
:101440009B838A830E94F71A29E230E040E050E053
:101450000E944F1B7D836C830E94F71A2FE130E0BE
:1014600040E050E00E944F1B7A8B698B188A9ACF1C
:10147000FB0101900020E9F73197AF01461B570BA4
:10148000DC01ED91FC910280F381E02D09948F92B3
:101490009F92AF92BF92EF92FF920F931F93CF93C1
:1014A000DF93CDB7DEB7A1970FB6F894DEBF0FBEBE
:1014B000CDBF7C01FA01CB0119A2223008F42AE049
:1014C0008E010F5D1F4F822E912CB12CA12CBF01DC
:1014D000A50194010E94811BF901CA016A300CF533
:1014E000605DD8016E938D01232B242B252B79F77A
:1014F00090E080E0109721F0BD01C7010E94380AFA
:10150000A1960FB6F894DEBF0FBECDBFDF91CF918D
:101510001F910F91FF90EF90BF90AF909F908F9091
:101520000895695CDECFCF92DF92EF92FF92CF9366
:10153000DF936C01990FEE08FF08F7FE23C06DE200
:101540008AE094E00E94AF03EC0144275527BA01DA
:101550004C195D096E097F092AE08AE094E00E9437
:10156000470AC80FD91F6FE171E08AE094E00E943A
:10157000380A8C0F9D1FDF91CF91FF90EF90DF9085
:10158000CF9008952AE0B701A6018AE094E00E9476
:10159000470AEC01E8CFCF92DF92EF92FF920F93D0
:1015A0001F93CF93DF936B01770FEE08FF08F7FED1
:1015B0001BC0EC016DE20E94AF038C01442755274C
:1015C000BA014C195D096E097F092AE0CE010E941B
:1015D000470A800F911FDF91CF911F910F91FF90CC
:1015E000EF90DF90CF9008952AE0B701A601DF9138
:1015F000CF911F910F91FF90EF90DF90CF900C94BF
:10160000470A0F931F93CF93DF93EC010E94B60319
:101610008C016FE171E0CE010E94380A800F911FAA
:10162000DF91CF911F910F910895ECEBF1E028EF3E
:1016300031E0DF01A9011D9241505040E1F7DC018A
:1016400019961C9219971A961C9208958AE094E0B4
:101650000E94150B6FE372E08AE094E00E94B603EB
:101660000E947D048CB583608CBD8DB58E7F8DBD51
:1016700082E291E0EEEFFFE30995109210046AE137
:1016800072E08AE094E00E94010B0E947D040E94B7
:10169000F4048091D103813039F062E370E080E09E
:1016A00090E00E940606F3CF08954F925F926F92EA
:1016B0007F928F929F92AF92BF92CF92DF92EF92E2
:1016C000FF920F931F93CF93DF9300D000D01F9210
:1016D000CDB7DEB740913C0450913D0460913E048B
:1016E00070913F042FB7F8948091B5019091B601A5
:1016F000A091B701B091B8012FBF481B590B6A0BDD
:101700007B0B80913B0490E0B0E0A0E000913704B7
:10171000109138042091390430913A0484179507C8
:10172000A607B70708F0CEC0011511052105310540
:1017300009F4C8C02FB7F8948091B5019091B60113
:10174000A091B701B091B8012FBF20913B04820F47
:10175000911DA11DB11D80933C0490933D04A09365
:101760003E04B0933F0480912D0490912E04A091EB
:101770002F04B09130040196A11DB11D80932D045A
:1017800090932E04A0932F04B0933004109237044A
:10179000109238041092390410923A040E94E10524
:1017A000609333047093340480933504909336042B
:1017B0008091BD039091BE032FE0289FA001299F37
:1017C000500D11245A83498385E10E94980529818F
:1017D0003A81820F931FB4E096958795BA95E1F709
:1017E0009093BE038093BD032091BC03222309F490
:1017F00048C06091C003262F30E050E040E02983CC
:101800003A834B835C83C090C103D12CF12CE12C33
:101810004091C4035091C5034A01B12CA12C2091E1
:10182000C2033091C3032901712C612C82179307E5
:1018300028F09C014817590708F49A0150E040E04D
:10184000241935094609570969817A818B819C8160
:101850006C197D098E099F090E94DC1CA501940169
:1018600024193509460957090E944F1BC20ED31E81
:10187000E41EF51EC092BF036C2D70E085E00E944F
:101880003B050E94F4048091D8039091D903892BE1
:1018900011F00E94AA0581E00F900F900F900F9019
:1018A0000F90DF91CF911F910F91FF90EF90DF90FC
:1018B000CF90BF90AF909F908F907F906F905F90F0
:1018C0004F900895012B022B032B09F07DC18091CD
:1018D000D30381508E3FB8F58091D203813099F5C2
:1018E0008091E6038F5F6091E70387FD09C0082EB2
:1018F000000C990B70E06F5F7F4F0E94F81C682FFF
:101900006093E60383E192E0909341048093400466
:1019100088E4809342040E94300380E092E0909338
:10192000EF038093EE031092F4031092F30381E02F
:101930008093E20389E08093F7031092FA031092F8
:10194000FC031092FE038091D30381508E3F70F40C
:101950008091D103813009F00AC386E092E0909330
:1019600041048093400488E4809342048091E10321
:10197000882331F08091E203811102C00E9442036A
:101980008091E203882309F43EC08091F60381111F
:101990003AC08091EE039091EF03E091F303F09150
:1019A000F403EE0FFF1FE80FF91F25913491211565
:1019B000310509F460C1A90156954795569547959B
:1019C000842F20FD03C18F738093F5038091E5037D
:1019D000839F802D11248093F603109206041092A9
:1019E00005041092040481E08093F8038093B90108
:1019F0001092F9038091F3039091F4030196909370
:101A0000F4038093F3038091F803882331F08091ED
:101A1000F60381114AC10E94300380914204882359
:101A200009F492C08C3008F027C23CE0381B39839F
:101A3000FF24F394F092120410922A0410922B04C3
:101A400040910F044D831981141B042F0D5F4DE24B
:101A5000410F2EE463E08AE094E00E94A5085D81D6
:101A600054505D83105D252F41E0612F80E50E9479
:101A700052082D8142E0612F83E00E945208F092CB
:101A80002A04F0922B0400910F0483E0800F8D83D1
:101A90001981101B9DE2E92EE10E23E0F22E4E2D5E
:101AA0006F2D8AE094E00E947807F39491E5F91293
:101AB000F6CF2D812E0D2D83E22EEA9483E0F82EB1
:101AC0004E2D6F2D8AE094E00E947807F39431E563
:101AD000F312F6CF0350105D402F612F80E00E947B
:101AE0003A08402F612F83E50E943A0841E0612FB8
:101AF00083E00E94BC0742E0612F80E50E94BC07A2
:101B00004D8144504D8344E06D8180E50E94BC07C7
:101B100048E06D8183E00E94BC0784E08093130459
:101B200080910F045981581B515D509314046091AA
:101B30004004709141048AE094E00E94B6038091D1
:101B400042048150809342048091D8039091D9033C
:101B5000892BE1F081E080932A0410922B0490916C
:101B60000E0485E5891B8093130410921404609180
:101B7000D503613009F4DFC108F480C18091D4033A
:101B8000653008F0EFC16B5F8111E7C10E947D04F1
:101B900080911004811104C08AE094E00E94150B2A
:101BA0000E94E105609337047093380480933904F0
:101BB00090933A042091330430913404621B730BE8
:101BC000709332046093310480E066CEC901E6E090
:101BD00096958795EA95E1F78F71932F969596954F
:101BE000969590514F70423099F1D0F4442309F406
:101BF0003CC04130B9F1E091F303F091F403319628
:101C0000F093F403E093F303CF01880F991FE09161
:101C1000EE03F091EF03E80FF91F25913491CBCE3D
:101C2000433061F0443039F72091E503289F802D3F
:101C300011248093FE039093FF03DDCF2091E503F1
:101C4000289F802D11248093FC039093FD03D3CF14
:101C50002091E503289F802D11248093FA0390930F
:101C6000FB03C9CF0E948303C6CF8B3008F08AE004
:101C70008093F703C0CF2091F203211110C010927E
:101C8000E2038091E103811103C00E943003BBCEC7
:101C90000E9442038091F3039091F403B6CF109217
:101CA000F4031092F303FC01B8CF81508093F60344
:101CB00080910604811142C02091040430910504F2
:101CC0002F5F3F4FC901880F991FE0910004F091E9
:101CD0000104E80FF91F85919491482F47704093B4
:101CE0000704492F4695469540930804AC0164E0EB
:101CF000569547956A95E1F74F739091E503499F93
:101D0000402D11244093060483FB882780F980939B
:101D1000B40130930504209304048091020490E000
:101D20002817390758F020910304222309F49EC094
:101D3000821B91099093050480930404809106040A
:101D40008150809306048091F90331E0380F30937D
:101D5000F9034091F50320910804240F8091ED03CD
:101D6000280F2093E3036091FC03662371F070E079
:101D7000832F032E000C990B0E94F81C8091FD0309
:101D8000869F200D11242093E3038091E30390E0CC
:101D9000849664E270E00E94F81C8093E303209133
:101DA000F7032093E4036091FA03662381F0062E83
:101DB000000C770B832F032E000C990B0E94F81C4C
:101DC0008091FB03869F200D11242093E4036091F2
:101DD000FE036623A1F0832F330F990B70E00E945E
:101DE000F81CCB0162E070E00E94F81C2091FF0318
:101DF0009091E403289F900D11249093E4034F33B6
:101E0000C1F18091E4038A300CF089E087FD80E025
:101E10008093E403F894E091E303F0E0E452FE4F92
:101E2000E491E093B301209109043091E40332037B
:101E300090011124409107044203C001439F900D7B
:101E400011242091E60302C0880F991F2A95E2F71A
:101E500097FF02C081589F4F880F892F881F990BC9
:101E60008093BA018093BB017894D7CD0E94300350
:101E700065CF1092E403CECF1982DACD0E943003F1
:101E80001092E20391E0909312048AE094E00E94A1
:101E90001A031092D9031092D8031092100428EA62
:101EA00029830E94550B8823E1F36EEC71E08AE0F0
:101EB00094E00E94B6034091D6035091D70370E09E
:101EC00060E02AE08AE094E00E94470A69EB71E052
:101ED0008AE094E00E94B603698162956F7070E0B9
:101EE0008AE094E00E94CB0A6EEA71E08AE094E016
:101EF0000E94B6038091D103813009F447CE398125
:101F0000315039833111CDCF70E060E085E00E941F
:101F10003B0583B7817F846083BF83B7816083BFC4
:101F200083B7816083BF889583B78E7F83BF83B774
:101F30008E7F83BFB6CF80912D0490912E04A09107
:101F40002F04B09130048F709927AA27BB2767E030
:101F50000897A105B10508F068E78AE094E00E94BF
:101F6000AF0314CE882309F411CE6FE2F6CF893285
:101F700009F0FCCC0E94260BF9CC8F929F92AF9275
:101F8000BF92DF92EF92FF920F931F93CF93DF9355
:101F900020912C04222309F4E5C0EC0181E0809318
:101FA000120410921104109210041092D403809322
:101FB0002A0480932B048CE0F82E00E012E0EE243B
:101FC000E39499E0D92E0E94550B8823E1F3FE019A
:101FD00084912EE331E040E060E08AE094E00E94EA
:101FE000380610921304F0921404BE018AE094E0C3
:101FF0000E94B60380910E04982F990F990F891BA8
:102000008D5A8093130480910F04982F990F990F84
:10201000891B835D8093140480912D046AE371E031
:1020200084FD02C066E371E08AE094E00E94010B47
:1020300080910E04982F990F990F891B8D5A8093C8
:102040001304809114048F5F809314048091E6033D
:1020500062E371E0811102C06EE271E08AE094E017
:102060000E94010B80910E04982F990F990F891BE4
:102070008D5A80931304809114048F5F809314040D
:102080006AE271E08AE094E00E94010B8091D20341
:10209000813031F58091E6038F5F6091E70387FD22
:1020A00009C0082E000C990B70E06F5F7F4F0E94F3
:1020B000F81C682F6093E6030E9430031093EF032F
:1020C0000093EE031092F4031092F303E092E20304
:1020D000D092F7031092FA031092FC031092FE03C1
:1020E0008091D1038130E9F080912C04482F50E099
:1020F00070E060E080902D0490902E04A0902F045A
:10210000B090300484169506A606B70610F08F3FEF
:1021100041F48091D303813009F055CF0E94260B02
:1021200052CF8FEF80932C040E9430031092E20371
:102130000E94300382E291E09093EF038093EE03DC
:102140001092F4031092F30381E08093E20399E08C
:102150009093F7031092FA031092FC031092FE037F
:102160008093D403DF91CF911F910F91FF90EF9057
:10217000DF90BF90AF909F908F9008951F920F9225
:102180000FB60F9211242F933F938F939F93AF938A
:10219000BF938091B5019091B601A091B701B09124
:1021A000B8013091430123E0230F2D3758F50196F4
:1021B000A11DB11D209343018093B5019093B601F9
:1021C000A093B701B093B80180914401909145016B
:1021D000A0914601B09147010196A11DB11D8093C8
:1021E000440190934501A0934601B0934701BF91EC
:1021F000AF919F918F913F912F910F900FBE0F90B4
:102200001F90189526E8230F0296A11DB11DD2CF6D
:102210001F920F920FB60F9211242F936F937F93FB
:102220008F939F936091BA01662349F18091420197
:102230008F5F809342019091B301891700F1209143
:10224000B90181E028272093B901109242018091C1
:10225000B401882369F08091000193E4899F802D67
:102260001124895B809300010E94EC1C9093BB01B8
:102270008091BB01211101C080E08093B4009F9147
:102280008F917F916F912F910F900FBE0F901F90A4
:102290001895CF93DF9300D000D0CDB7DEB77894F8
:1022A00084B5826084BD84B5816084BD85B582605B
:1022B00085BD85B5816085BD80916E00816080930C
:1022C0006E00109281008091810082608093810075
:1022D0008091810081608093810080918000816085
:1022E000809380008091B10084608093B1008091E0
:1022F000B00081608093B00080917A008460809308
:102300007A0080917A00826080937A0080917A00CE
:10231000816080937A0080917A00806880937A004F
:102320001092C10082E380933B0481E090E0A0E042
:10233000B0E08093370490933804A0933904B093AD
:102340003A048FEF80932C04E0E8F7E7259134916D
:102350002130304C09F08CC2E6E9F7E7E491E093D4
:102360001504E7E9F7E7E491E093C003E8E9F7E74C
:10237000E491E093C103E9E9F7E7859194919093A3
:10238000C3038093C203EBE9F7E78591949190939F
:10239000C5038093C40387E08093E703EEE9F7E782
:1023A000E491E093E603EFE9F7E7E491E0932C048E
:1023B000E0EAF7E7859194919093D9038093D8034D
:1023C000E2EAF7E7859194919093DB038093DA0337
:1023D000E4EAF7E7859194919093DD038093DC0321
:1023E000E6EAF7E7859194919093DF038093DE030B
:1023F00051E05093BC036FEF70E085E00E943B0515
:1024000088E08093C60389E08093C70387E08093C8
:10241000C80386E08093C90384E08093CA0382E006
:102420008093CB0381E18093CC030E94F4048CE37E
:102430009FE09093D7038093D60394E09093D503C5
:10244000A1E0A093E0038BE0809318048DE08093DB
:10245000170480E1809319048EE080931B048FE0C1
:1024600080931A04A0931204A0932A0410922B04C0
:10247000A09311048AE094E00E941A03BFB7B983C5
:10248000F89480914801811127C0EBE7F2E0849134
:10249000EFE8F2E09491E82FF0E0EE0FFF1FEE5628
:1024A000FF4FA591B491EC91E92321F461E08AE01A
:1024B0000E94300461E08AE00E94B8048CB580611B
:1024C0008CBD8CB580648CBD61E08DE00E94B80449
:1024D00061E08BE00E94B804809148018F5F809397
:1024E0004801E981EFBF8CB58F7D8CBD8CB58C7FA9
:1024F00081608CBD8DB581608DBD8CB58C608CBDCF
:1025000061E0809118040E94B80461E08091170492
:102510000E94B80461E0809119040E94B80480917F
:102520001B0418161CF461E00E94B80480911A0480
:1025300018161CF461E00E94B80480911B04181660
:1025400074F460E00E9430046AE070E080E090E0A3
:102550000E94060661E080911B040E943004809175
:102560001704082E000C990BFC01EF58FD4FE49165
:10257000F0E0EE0FFF1FE456FF4F259134913093AA
:102580001F0420931E04FC01EB57FD4FE491E093E0
:10259000250480911804082E000C990BFC01EF58BB
:1025A000FD4FE491F0E0EE0FFF1FE456FF4F259141
:1025B000349130931D0420931C04FC01EB57FD4F14
:1025C000E491E093240480911A04082E000C990BE6
:1025D000FC01EF58FD4FE491F0E0EE0FFF1FE456D1
:1025E000FF4F259134913093210420932004FC0166
:1025F000EB57FD4FE491E093260480911904082ED7
:10260000000C990BFC01EF58FD4FE491F0E0EE0F48
:10261000FF1FE456FF4F25913491309323042093FC
:102620002204FC01EB57FD4FE491E093270481E283
:102630000E945E0484E10E945E048091150487FF7D
:1026400003C08FE7809315048091150480680E9471
:102650005E0480E20E945E048CE00E945E040E94A0
:102660007D0481E08093E50384E0809309048EE893
:1026700090E09093F1038093F00380E00E94830345
:1026800061E070E083E00E943B058091B100887FAB
:1026900081608093B100F8941092800010928100C4
:1026A000109285001092840088E191E09093890057
:1026B0008093880080918100886080938100809160
:1026C000810081608093810080916F00826080939F
:1026D0006F0078948091D8039091D903892B11F0E1
:1026E0000E94AA058091D203813009F4EEC0809146
:1026F000D503882309F4E9C00E94300386EA90E0FC
:102700009093EF038093EE031092F4031092F3037F
:1027100081E08093E20389E08093F7031092FA034B
:102720001092FC031092FE0384EB90E00E94BD0F18
:10273000C090D603D090D703C094D094F12CE12C54
:102740000E94E1054B015C010E94E105A501940195
:102750002095309540955095609570958095909511
:102760000E94DC1C9B01AC01C701B6010E94DC1C6D
:102770004B015C01C090BD03D090BE03F12CE12C55
:102780000E94E1056C0D7D1D8E1D9F1D680D791D3C
:102790008A1D9B1D611571058105910511F00E942F
:1027A000461B8AE094E00E941A032DE931E03A8347
:1027B0002983A981BA811D921D92BA83A983A15B45
:1027C000B140B9F709E8202E01E0302ED1011D9269
:1027D0001D921D01BDE92B16B1E03B06B9F789E852
:1027E00091E01DE4412E11E0512EF201119211925F
:1027F0002F018E179F07C9F70E94550B182F8823AA
:1028000009F471C58091D30381508E3F20F484E197
:1028100091E00E94BD0F20910701309108013C8397
:102820002B83232B09F478C28091CF03815040E0A1
:102830008E3F08F05BC08091B1019091B20181356B
:1028400091050CF052C02091D00321502E3F08F08A
:102850003FC020910501309106012B323105C4F5AE
:1028600001969093B2018093B1012F5F3F4F62C0F8
:102870009CE3909315041092C0038093C10380E2FF
:1028800093E09093C3038093C20384ED93E090930D
:10289000C5038093C40387E08093E7038093E60336
:1028A0008CEA9DE09093D9038093D8038EED9DE050
:1028B0009093DB038093DA0384E79EE09093DD033B
:1028C0008093DC038CE39FE08FCD1092E6032CCF46
:1028D0002091CE0321502E3F40F4209105013091EC
:1028E0000601019612161306FCF0412F8091CD03CC
:1028F00081508E3F08F076C28091B1019091B20173
:10290000181619060CF047C22091D00321502E3F13
:1029100008F033C220910501309106012B323105B8
:102920000CF02BC201979DCF9093B2018093B1011F
:102930002150310930930601209305018091030154
:1029400090910401853091052CF401969093040137
:10295000809303018091D10381508E3FB0F5809127
:10296000030190910401059781F5EDE9F1E010E094
:1029700000E081919191892B09F04BC288E090E0B1
:102980000E948619FC018091050190910601209119
:10299000B1013091B20142E050E0578346832E5F8F
:1029A0003F4F3183208303969383828381E090E0BD
:1029B00095838483000F111FD801A356BE4FED935A
:1029C000FC931092040110920301ADE9CA2EA1E01C
:1029D000DA2ED601ED91FD916D013097D9F0248169
:1029E000358180819181468157812130310509F0FF
:1029F00017C2840F951F91838083808191818735D1
:102A000091050CF010C28C3F9F4F24F42230310509
:102A100009F40DC2E1EBCE16E1E0DE06D1F6F9E8ED
:102A2000AF2EF1E0BF2ED501ED91FD915D01309704
:102A300009F005C22A143B04B1F72DE431E03C83D0
:102A40002B83AB81BC81ED91FD91BC83AB8330972F
:102A500009F05EC2EB81FC814E165F0691F7609132
:102A60002D0470912E0480912F049091300424E164
:102A700030E040E050E00E94811B672B682B692BFF
:102A800051F5E9E8F1E01C821B8281919191892B3B
:102A900009F0ABC20E94F71A4B015C0183E190E0A0
:102AA0000E9486198C01C501B4012AE030E040E0A3
:102AB00050E00E944F1B6F5F7F4F8F4F9F4FC801A9
:102AC0000E94AE092B813C81220F331F27573E4FB6
:102AD000D9010D931C9359E8652E51E0752ED30151
:102AE000ED91FD913D01309701F12281338180818B
:102AF00091818230910509F483C28330910509F4F4
:102B0000A0C2019731F486819781281B390B33834A
:102B1000228382819381863F9F4F3CF4CF010E94A4
:102B2000221AF30132971182108226143704B9F663
:102B300009E811E060912D0470912E0480912F041A
:102B4000909130042EE130E040E050E00E94811B83
:102B5000EDE4F1E01C821B8221913191232B09F0DD
:102B6000BCC2D801ED90FC90E114F10409F4B5C2A7
:102B7000611571058105910509F0AFC288E090E00B
:102B80000E948619FC01D70114968D919C9115978E
:102B900012962D913C9142E050E057834683318359
:102BA0002083039693838283558344838B819C8106
:102BB000880F991F835B9E4FDC01ED93FC930E5FA2
:102BC0001F4F6016710609F0B5CF4DE451E05C83EC
:102BD0004B83AB81BC81ED91FD91BC83AB8330977E
:102BE000D9F044815581808191812681378141309E
:102BF000510509F07DC2820F931F918380838081EC
:102C00009181873591050CF076C28C3F9F4F24F45B
:102C10004230510509F473C2EB81FC814E165F0608
:102C2000C1F699E8892E91E0992E8DE9A82E81E0D0
:102C3000B82ED4010D90BC91A02DBC83AB83AB2BDF
:102C400009F446C0D501ED91FC91AB81BC811A9687
:102C5000ED90FC901B9714960D911C911597129670
:102C60002D913C916281738149E051E08081918195
:102C70000E944302882379F0EB81FC818685978549
:102C8000019797878687D5018D919C910E94221A82
:102C9000F50111821082AB81BC811E968D919C91B1
:102CA0001F9718161906A4F080914B0190914C01C2
:102CB00018962D913C911997820F931F90934C0178
:102CC00080934B01CD010E94221AF40111821082DF
:102CD000F2E0AF0EB11CCA14DB0409F0AACF22E067
:102CE000820E911C6814790409F09FCF80914B01EA
:102CF00090914C012091490130914A0128173907E0
:102D000024F490934A0180934901809107019091A6
:102D10000801892B09F058C21BE1809101019091B3
:102D200002019C01215031093093020120930101DD
:102D300009970CF4EDC10E94550B8823E1F38AE05A
:102D400094E00E94150B1093130432E130931404A5
:102D500060E071E08AE094E00E94010B48E2409359
:102D60001304809101019091020164E170E00E94DE
:102D7000F81CCB010E94930AD0CF2091CE032150A2
:102D80002E3F48F42091050130910601019712165B
:102D900013060CF4C9CD8091CE0381508E3F38F4D8
:102DA000809105019091060118161906ECF08091AA
:102DB000D00381508E3F38F4809105019091060137
:102DC0008B329105BCF0111117C0442309F4B6CD24
:102DD0008091B1019091B201813591050CF0AECD99
:102DE000019612C010E0D7CF01979093060180930F
:102DF0000501A4CD0196F9CF8091B1019091B20166
:102E00001816190614F701979093B2018093B10137
:102E100095CD0F5F1F4F0A30110509F0AACDD5CD12
:102E2000841B950BE8CD2130310509F0F3CDCF019E
:102E30000E94221AF601329711821082EBCDE284B1
:102E4000F3840481158122813381609105017091A1
:102E5000060149E051E08091B1019091B2010E94D8
:102E60004302882309F4E6CDEB81FC813197F0938E
:102E70000801E09307011092B2011092B10125E11F
:102E800030E030930601209305014DE951E05C8369
:102E90004B83AB81BC818D919D91BC83AB830E94A0
:102EA000221AEB81FC81329711821082EB81FC8126
:102EB000CE16DF0671F729E831E03C832B83AB8126
:102EC000BC818D919D91BC83AB830E94221AEB81C2
:102ED000FC81329711821082EB81FC812E163F0615
:102EE00071F72DE431E03C832B83AB81BC818D9164
:102EF0009D91BC83AB830E94221AEB81FC813297A7
:102F000011821082EB81FC81E415F50571F795CDF6
:102F10000281138120813181609105017091060148
:102F2000E9E0EE2EE1E0FE2E4DE051E08091B101AE
:102F30009091B2010E944302882309F48BCD8091C5
:102F40000701909108010197909308018093070170
:102F50001092B2011092B10125E130E030930601E8
:102F6000209305014DE951E05C834B83AB81BC812B
:102F70008D919D91BC83AB830E94221AEB81FC81D1
:102F8000329711821082EB81FC81CE16DF0671F739
:102F900029E831E03C832B83AB81BC818D919D91ED
:102FA000BC83AB830E94221AEB81FC813297118291
:102FB0001082EB81FC812E163F0671F72DE431E083
:102FC0003C832B83AB81BC818D919D91BC83AB8372
:102FD0000E94221AEB81FC81329711821082EB81D0
:102FE000FC81E415F50571F73ACD2B813C812F5F0B
:102FF0003F4F3C832B832A30310509F046CD6BCD02
:1030000086819781AC0197FF04C044275527481B50
:10301000590B241B350B3383228324813581280FE0
:10302000391F358324831216130634F09195819548
:103030009109978386836DCD283231050CF469CDD3
:10304000F5CF86819781AC0197FF04C044275527AF
:10305000481B590B241B350B3383228320892111F4
:1030600018C024813581280F391F35832483121617
:1030700013061CF130E020E0281B390BC901880F32
:10308000991F9783868331E0308B8089882309F4E8
:1030900040CD818992899C0121503109328B218B4D
:1030A000181619060CF035CD84819581268137815B
:1030B000820F931F958384832CCD283231050CF425
:1030C00028CD50E040E0481B590BCA01880F991FDA
:1030D0009783868351E0508BD8CF2B813C812F5F23
:1030E0003F4F3C832B832E31310509F035CD67CD21
:1030F000821B930B82CD4130510509F08DCDCF015C
:103100000E94221AEB81FC8132971182108284CDB9
:1031100055E0509313048CE08093140461EF70E049
:103120008AE094E00E94010B85E08093130465EE31
:1031300070E08AE094E00E94010B95E09093130404
:103140006AED70E08AE094E00E94010BA5E0A09394
:1031500013046EEC70E08AE094E00E94010B809111
:10316000CE0381508E3F80F484E090E0909308017C
:103170008093070110924C0110924B0180E590E082
:1031800090930201809301018091D00381508E3F82
:10319000A0F484E090E090930801809307011092DE
:1031A0004C0110924B0180E590E0909302018093D6
:1031B000010181EC90E00E94BD0F80910701909188
:1031C0000801892B09F418CB8AE094E00E94150BC2
:1031D00080912D0480FF2FC01092130410921404CC
:1031E00069E271E08AE094E00E94380A6091070188
:1031F000709108018AE094E00E94CB0A10921304B7
:1032000085E28093140461E371E08AE094E00E9417
:10321000380A80914B0190914C010E94930A69E316
:1032200071E08AE094E00E94380A8091490190910F
:103230004A010E94930A2DE031E04091050160911E
:10324000B1018AE094E00E943806EDE9F1E0FC83E8
:10325000EB83AB81BC81ED91FD91BC83AB83309757
:1032600041F029E031E0428160818AE094E00E94EF
:103270003806E981FA812B813C81E217F30749F78F
:1032800049E851E05C834B83AB81BC81ED91FD91BA
:10329000BC83AB83309741F02285338544816281C2
:1032A0008AE094E00E943806EB81FC812E163F06EE
:1032B00059F72DE431E03C832B83AB81BC81ED9148
:1032C000FD91BC83AB83309741F029E031E042812E
:1032D00060818AE094E00E943806EB81FC81E4156D
:1032E000F50559F789CA80E090E0892B09F484CA72
:1032F0000E94000081CA10920D0410920C0487E114
:1033000091E090930B0480930A0408950F931F9308
:10331000CF93DF938230910510F482E090E0E0914A
:103320004504F091460430E020E0B0E0A0E03097A2
:1033300099F42115310509F44AC0281B390B2430B2
:103340003105D8F58A819B816115710589F1FB01F1
:1033500093838283FE0111C04081518102811381D8
:1033600048175907E0F04817590799F4109761F08A
:1033700012960C93129713961C933296CF01DF91FD
:10338000CF911F910F910895009345041093460427
:10339000F4CF2115310551F04217530738F0A90138
:1033A000DB019A01BD01DF01F801C1CFEF01F9CFC7
:1033B0009093460480934504CDCFFE01E20FF31FA6
:1033C000819391932250310939832883D7CF20915B
:1033D000430430914404232B41F420910B0130919C
:1033E0000C0130934404209343042091090130914F
:1033F0000A012115310541F42DB73EB740910D0169
:1034000050910E01241B350BE0914304F0914404CC
:10341000E217F307A0F42E1B3F0B2817390778F0AB
:10342000AC014E5F5F4F2417350748F04E0F5F1F0A
:103430005093440440934304819391939FCFF0E0D1
:10344000E0E09CCFCF93DF930097E9F0FC01329747
:1034500013821282A0914504B0914604ED0130E040
:1034600020E01097A1F420813181820F931F2091D9
:103470004304309144042817390709F061C0F093E0
:103480004404E0934304DF91CF910895EA01CE17FD
:10349000DF07E8F54A815B819E0141155105B1F7CF
:1034A000E901FB83EA8349915991C40FD51FEC17B9
:1034B000FD0761F4808191810296840F951FE901D7
:1034C00099838883828193819B838A83F0E0E0E003
:1034D00012968D919C9113970097B9F52D913C917F
:1034E0001197CD010296820F931F209143043091D2
:1034F00044042817390739F6309751F510924604DD
:1035000010924504B0934404A0934304BCCFD383EA
:10351000C28340815181840F951FC817D90761F478
:103520004E5F5F4F88819981480F591F51834083B7
:103530008A819B81938382832115310509F0B0CF65
:10354000F0934604E09345049ECFFD01DC01C0CF1B
:1035500013821282D7CF8F929F92AF92BF92CF9257
:10356000DF92EF92FF92CF93DF93EC016881798134
:103570008A819B81611571058105910521F464E2C1
:1035800079ED8BE597E02DE133EF41E050E00E94CB
:103590004F1B49015A019B01AC01A7EAB1E40E940B
:1035A0006E1B6B017C01ACEEB4EFA50194010E948F
:1035B0007C1BC60ED71EE81EF91EF7FE06C081E072
:1035C000C81AD108E10880E8F80AC882D982EA82DC
:1035D000FB82C701B6019F77DF91CF91FF90EF90FB
:1035E000DF90CF90BF90AF909F908F9008958F9273
:1035F0009F92AF92BF92CF92DF92EF92FF92609133
:103600000F017091100180911101909112016115CB
:1036100071058105910521F464E279ED8BE597E070
:103620002DE133EF41E050E00E944F1B49015A0168
:103630009B01AC01A7EAB1E40E946E1B6B017C0107
:10364000ACEEB4EFA50194010E947C1BC60ED71E00
:10365000E81EF91EF7FE06C081E0C81AD108E1088D
:1036600080E8F80AC0920F01D0921001E092110197
:10367000F0921201C701B6019F77FF90EF90DF90A3
:10368000CF90BF90AF909F908F90089560930F015F
:103690007093100180931101909312010895052EEB
:1036A00097FB1EF400940E94661B57FD07D00E94F2
:1036B000811B07FC03D04EF40C94661B509540957B
:1036C000309521953F4F4F4F5F4F089590958095CE
:1036D000709561957F4F8F4F9F4F08950E94A31B58
:1036E000A59F900DB49F900DA49F800D911D112456
:1036F0000895B7FF0C946E1B0E946E1B821B930BE8
:103700000895A1E21A2EAA1BBB1BFD010DC0AA1F22
:10371000BB1FEE1FFF1FA217B307E407F50720F03A
:10372000A21BB30BE40BF50B661F771F881F991FB5
:103730001A9469F760957095809590959B01AC01FE
:10374000BD01CF010895A29FB001B39FC001A39F07
:10375000700D811D1124911DB29F700D811D1124CA
:10376000911D08950E94261C88F09F5798F0B92F4C
:103770009927B751B0F0E1F0660F771F881F991FA6
:103780001AF0BA95C9F714C0B13091F00E94401CEC
:10379000B1E008950C94401C672F782F8827B85FFC
:1037A00039F0B93FCCF3869577956795B395D9F7FE
:1037B0003EF490958095709561957F4F8F4F9F4F08
:1037C0000895E89409C097FB3EF490958095709514
:1037D00061957F4F8F4F9F4F9923A9F0F92F96E95D
:1037E000BB279395F695879577956795B795F111D2
:1037F000F8CFFAF4BB0F11F460FF1BC06F5F7F4F6F
:103800008F4F9F4F16C0882311F096E911C0772380
:1038100021F09EE8872F762F05C0662371F096E889
:10382000862F70E060E02AF09A95660F771F881F58
:10383000DAF7880F9695879597F9089557FD905870
:10384000440F551F59F05F3F71F04795880F97FB64
:10385000991F61F09F3F79F087950895121613061E
:103860001406551FF2CF4695F1DF08C0161617064D
:103870001806991FF1CF8695710561050894089582
:10388000E894BB2766277727CB0197F908950E9414
:103890005A1C0C94CB1C0E94BD1C38F00E94C41C06
:1038A00020F0952311F00C94B41C0C94BA1C112434
:1038B0000C94411C0E941E1C70F3959FC1F3950F40
:1038C00050E0551F629FF001729FBB27F00DB11DA4
:1038D000639FAA27F00DB11DAA1F649F6627B00D34
:1038E000A11D661F829F2227B00DA11D621F739F1D
:1038F000B00DA11D621F839FA00D611D221F749F2B
:103900003327A00D611D231F849F600D211D822F71
:10391000762F6A2F11249F5750409AF0F1F0882398
:103920004AF0EE0FFF1FBB1F661F771F881F9150C5
:103930005040A9F79E3F510580F00C94B41C0C94A4
:10394000411C5F3FE4F3983ED4F3869577956795E5
:10395000B795F795E7959F5FC1F7FE2B880F911DEF
:103960009695879597F9089597F99F6780E870E095
:1039700060E008959FEF80EC089500240A941616E5
:10398000170618060906089500240A94121613064D
:10399000140605060895092E0394000C11F48823DB
:1039A00052F0BB0F40F4BF2B11F460FF04C06F5FF7
:1039B0007F4F8F4F9F4F0895DB018F939F930E94FE
:1039C0006E1BBF91AF91A29F800D911DA39F900D83
:1039D000B29F900D11240895991B79E004C0991F9E
:1039E000961708F0961B881F7A95C9F78095089559
:1039F00097FB072E16F4009407D077FD09D00E949C
:103A00000C1D07FC05D03EF4909581959F4F0895BD
:103A1000709561957F4F0895AA1BBB1B51E107C0AC
:103A2000AA1FBB1FA617B70710F0A61BB70B881F4E
:103A3000991F5A95A9F780959095BC01CD010895DD
:103A4000EE0FFF1F0590F491E02D0994F894FFCF3D
:103A5000015000050015000400000047048000012B
:103A600000000000000000D508DA03AB09AA090D28
:103A70000A004C4F41444552004C697665733A2028
:103A80000053636F72653A20005265636F72643A47
:023A9000200014
:00000001FF
